:020000040800F2
:100000005008002051760008457600084776000821
:100010004D760008497600084B7600084F760008B8
:100020004F7600084F7600084F7600084F7600089C
:100030004F7600084F760008074400083524000872
:10004000BD100008C7100008D1100008DB10000820
:10005000E5100008EF100008F9100008031100086F
:100060000D11000817110008211100082B110008BC
:10007000351100083F11000849110008531100080C
:100080005D11000867110008711100087B1100085C
:10009000851100088F11000899110008A3110008AC
:1000A000AD110008B7110008C1110008CB110008FC
:1000B000D5110008DF110008E9110008F31100084C
:1000C000FD11000807120008111200081B12000899
:1000D000251200082F1200083912000847120008E4
:1000E000511200085B120008651200086F12000828
:1000F00079120008831200088D1200089712000878
:10010000A1120008AB120008B5120008BF120008C7
:10011000C9120008D3120008DD120008E712000817
:10012000F1120008FB120008051300080F13000865
:1001300000B587B000F0BEFF01F00CF90320049079
:10014000002003904FF4007002900B4801900120B2
:1001500000900123094A00210FF2250001F0B6FDAD
:1001600005AADFF8B41D012001F022FE01F054F9C8
:10017000002007B000BD0000501000204C180020E7
:100180002DE9F04794B002F0DCF802F064F901F0D8
:1001900064F903200490002003904FF480700290D3
:1001A000DFF87C0D0190022000900223DFF8742D0F
:1001B0000021DFF8740D01F089FD07AA75A1022066
:1001C00001F0F6FD7D2002F0ECFA00282AD002F0C2
:1001D00011FBDFF8580D02F084FE4FF49672DFF841
:1001E000501DDFF8500D02F0DFFE1A20DFF8441D2D
:1001F00008700121DFF83C0D02F09DFE4FF496726D
:10020000DFF82C1DDFF82C0D02F0CEFEDFF8280DF4
:1002100002F067FE4FF47A72DFF8141DDFF8140D58
:1002200002F0C2FE02F0D7FB0020DFF8101D0860CC
:10023000DFF8080D0068FF2814D80422DFF8F41C4A
:10024000DFF8F80C006803F07BF9DFF8E80C0078C1
:10025000FF2807D0DFF8E40C0068401CDFF8DC1C46
:100260000860E5E7DFF8D40C0068B0F5807F03D1C3
:100270000120DFF8CC1C086002F0E6FADFF8C41CAD
:100280000860DFF8C00C00681F214843122190FB72
:10029000F1F0DFF8B01C0860DFF8A80C006840F649
:1002A0007461884207DA0020DFF89C1C0860002097
:1002B000DFF88C1C0860DFF88C0C0068B0F5616F0B
:1002C000C0F2D48502F05AFDDFF8801C086002F00D
:1002D000A3FD02F0E7FADFF8641C0860DFF85C0CAD
:1002E000006880B202F046FFDFF8641C086002F08C
:1002F00013FBDFF8481C0860DFF8400C0068DC28BE
:1003000004D20020DFF8E41C086007E0DFF82C0CC2
:100310000068DC388008DFF8D41C08600120DFF8B2
:10032000281C0860DFF8200C0068DFF8141C09683E
:100330000843002800F0D5810221DFF8180C03F0F3
:100340004BFADFF80C0C0068002825D4DFF89C0C71
:100350000068002820D4DFF8F40B006800281BD4C4
:10036000DFF8F40B0068002816D4DFF8840C00686E
:10037000002811D4032003F012F84FF47A7003F030
:1003800031FA032003F001F84FF47A7003F02AFAEF
:100390000FE000BF494F0000032003F000F8C82021
:1003A00003F020FA032002F0F0FF4FF4E16003F0C5
:1003B00019FA0221DFF89C0B03F011FA1E20DFF876
:1003C000341C0860DFF82C0C0068411EDFF8242C78
:1003D000116000281CD0DFF8540B02F082FD4FF4AE
:1003E0007A72DFF84C1BDFF84C0B02F0DDFDDFF812
:1003F000400B0068012806DBDCA1DFF8380B03F0B6
:100400002DFA002804D10120DFF8EC1B0860D9E7A1
:10041000DFF8E00B006810F1010F00F06281DFF8F7
:10042000DC0B02F05EFD4FF49672DFF8041BDFF880
:10043000040B02F0B9FDDFF8100B0068002800F093
:1004400050810220DFF8B01B0860DFF8100B02F0CB
:1004500048FD4FF49672DFF8D81ADFF8D80A02F098
:10046000A3FDDFF8FC0A02F03CFD4FF4FA72DFF85E
:10047000C01ADFF8C00A02F097FDDFF8880B02F01F
:1004800030FD4FF49672DFF8A81ADFF8A80A02F0E0
:100490008BFD14240025DFF8706B2A00210030004A
:1004A00003F0E4F914260027DFF8608B3A003100EE
:1004B000404603F0DBF95FF014085FF00009DFF855
:1004C00050AB4A464146504603F0D0F99620DFF83B
:1004D000241B08600020DFF83C1B0860DFF8140BC9
:1004E0000068411EDFF80C2B1160002822D040F676
:1004F000B832DFF83C1ADFF83C0A02F055FDDFF8AD
:10050000300A00680128E9DBDFF8280A02F09BFEC8
:10051000012806D1DFF8FC0A0068401CDFF8F41A55
:100520000860DFF8F00A00680B28D7DB0320DFF84B
:10053000C81A0860DFF8240A02F0D3FC4FF4967260
:10054000DFF8EC19DFF8EC0902F02EFDDFF8C80A3D
:1005500002F0C7FC4FF49672DFF8D419DFF8D40923
:1005600002F022FDDFF8900A0068032840F0B9800D
:10057000DFF89C0A0078002800F0B380DFF8900ACA
:1005800000780A21DFF8882A527801FB0020B0F5B4
:100590000470DFF8881AC860DFF8740A80780A21CE
:1005A000DFF86C2AD27801FB0020A0F21120DFF8DE
:1005B0006C1A0861DFF8580A00790A21DFF8502A1E
:1005C000527901FB0020B0F5D670DFF8501A48616F
:1005D000DFF83C0A80790A21DFF8342AD27901FB5E
:1005E0000020B0F50470DFF8341A8860DFF8200AC4
:1005F000007A0A21DFF8182A527A01FB0020B0F5B0
:100600000470DFF8181A4860DFF8040A807A0A21BB
:10061000DFF8FC29D27A01FB0020B0F50470DFF886
:10062000FC190860DFF8F4090068002804D4DFF83A
:10063000EC0900683C2800DB53E0DFF8E009406883
:10064000002804D4DFF8D40940683C2800DB48E0E7
:10065000DFF8C8098068002804D4DFF8C009806882
:10066000182800DB3DE0DFF8B409C068012804DB8E
:10067000DFF8A809C068202800DB32E0DFF89C0919
:100680000069002804D4DFF8940900690C2800DB15
:1006900027E0DFF888094069752822DB4AF2A55176
:1006A000042003F023F9DFF8741984B068462C2283
:1006B00003F03CF90FBC02F07FF903F072F9DFF8A8
:1006C0007C180860DFF874080068010C89B2082003
:1006D00003F00CF9DFF86408016889B20C2003F01C
:1006E00005F90020DFF8381908600020DFF8341918
:1006F00008600020DFF844180860DFF84008006850
:10070000FF2837D80822DFF82019DFF83008006802
:1007100002F016FFDFF810090078FF281ED0002035
:10072000DFF80419C871DFF8042911A1DFF8F8080F
:1007300003F078F9DFF8E8080068DFF8F0180968D6
:1007400088420BD2DFF8E4080068DFF8D4180860AC
:10075000DFF8E8070068DFF8CC180860DFF8DC078E
:100760000068401CDFF8D4170860C6E74F4B000054
:1007700025640000C8240025DFF8B8672A0021009E
:10078000300003F073F8DFF8A808DFF89418096860
:10079000DFF88C28126892FBF0F200FB1210DFF8F1
:1007A00080180860DFF878080068421CDFF88418B9
:1007B000DFF8800703F048F9DFF87C080068DFF80D
:1007C0007C180860DFF878080068DFF87018486067
:1007D000DFF870080068DFF864188860DFF85C08EC
:1007E000006880B2DFF854180860DFF850088068AD
:1007F0000090DFF848084368DFF840080268DFF837
:100800004818DFF8240803F01FF9DFF81C18DFF898
:10081000240703F033F9DFF8D807006810F1010F5F
:1008200018D0DFF8CC07006803F036F9DFF81C2891
:10083000DFF81C3803F048F902000B00DFF8141849
:10084000DFF8E40703F000F9DFF8DC17DFF8E4066F
:1008500003F014F9DFF80007006810F1010F0ED063
:10086000DFF8F4060268DFF8F017DFF8BC0703F0E2
:10087000EBF8DFF8B417DFF8BC0603F0FFF8DFF899
:10088000CC06006810F1010F0ED0DFF8C006026838
:10089000DFF8C817DFF8900703F0D6F8DFF88817FD
:1008A000DFF8900603F0EAF8DFF8A4060268DFF844
:1008B000B017DFF8740703F0C7F8DFF86C17DFF83C
:1008C000740603F0DBF8DFF824070268DFF89417FA
:1008D000DFF8540703F0B8F8DFF84C17DFF85406D8
:1008E00003F0CCF8DFF85C060268DFF87C17DFF86D
:1008F000380703F0A9F8DFF83017DFF8380603F0FF
:10090000BDF8DFF80407007800280FD0DFF8FC36C8
:10091000DFF8F426DFF85417DFF80C0703F094F83B
:10092000DFF80417DFF80C0603F0A8F808A802F0B7
:100930002DF8DFF8E80608A92C2202F0F7FFDFF80F
:10094000DC0600680390DFF8D40640680290DFF808
:10095000CC0680680190DFF8C406406900F26C7034
:100960000090DFF8B8060069431CDFF8B006C268E3
:10097000DFF8FC16DFF8B00603F066F8DFF8A8161B
:10098000DFF8B00503F07AF8DFF898060068401C3D
:10099000DFF890160860DFF88C060068FF2803DD9A
:1009A0000020DFF880160860C822DFF88815DFF81D
:1009B0007406006802F0B3FDDFF8840500680028C3
:1009C00000F054820420DFF8301608603C20DFF885
:1009D00024160860DFF81C060068411EDFF81426A4
:1009E0001160002875D0DFF88C0602F07AFA4FF417
:1009F0009672DFF83C15DFF83C0502F0D5FADFF817
:100A0000300500680128E5DBDFF86C16DFF8240507
:100A100002F024FF002804D00520DFF8DC15086070
:100A200057E0DFF85816DFF80C0502F017FF002832
:100A300004D00620DFF8C01508604AE0DFF8401651
:100A4000DFF8F00402F00AFF002831D0DFF8E804F4
:100A500002F047FA41F28832DFF8D414DFF8D40408
:100A600002F0A2FA4FF47A7002F0BCFE0221DFF825
:100A7000E40402F0B1FE4FF4FA6002F0B3FE02218A
:100A8000DFF8D00402F0ABFE41F2883002F0AAFE9B
:100A9000DFF8680502F025FA4FF49672DFF890143B
:100AA000DFF8900402F080FA0720DFF84C150860A8
:100AB000DFF8D00502F015FA4FF49672DFF87014E3
:100AC000DFF8700402F070FA4FF47A7002F08AFED8
:100AD00080E7DFF82005006810F1010F00F0C68103
:100AE000DFF8A40502F0FDF942F21072DFF84014BD
:100AF000DFF8400402F058FADFF8340400680128F7
:100B00000DDBDFF83004007A0A21DFF82824527A5E
:100B100001FB0020B0F50470DFF8701508604FF499
:100B20007A7002F05FFE0820DFF8CC1408600A201B
:100B3000DFF8C0140860DFF8BC040068411EDFF86D
:100B4000B4241160002828D0DFF8440502F0C9F968
:100B500042F21072DFF8D813DFF8D80302F024FA5B
:100B6000DFF8CC030068002806D0BEA1DFF8C4037C
:100B700002F074FE002810D1DFF8180502F0B1F978
:100B80004FF4FA62DFF8A813DFF8A80302F00CFABA
:100B90000920DFF864140860CDE7DFF85804006826
:100BA00010F1010F00F062810C20DFF8481408609A
:100BB000DFF84004006810F1010F00F057810020B9
:100BC000DFF85C1408600020DFF85814086000208B
:100BD000DFF868130860DFF864030068FF2832D884
:100BE0000822DFF84414DFF85403006802F0A8FC80
:100BF000DFF834040078FF281ED00020DFF8281426
:100C0000C871DFF8282498A1DFF81C0402F00AFF5D
:100C1000DFF80C040068DFF81414096888420BD26E
:100C2000DFF808040068DFF8F8130860DFF80C0349
:100C30000068DFF8F0130860DFF800030068401C6C
:100C4000BE490860C7E7DFF8D803006800280CD168
:100C5000DFF8400402F045F94FF4FA7002F0C2FDEB
:100C60001020DFF89413086000E1DFF82C0402F094
:100C700038F942F21072AE49AE4802F095F9AC482C
:100C80000068002805D0A5A1AA4802F0E7FD0028C9
:100C900016D11A20A74908700121A64802F04BF985
:100CA0004FF4967002F09EFD0D20DFF84C130860A3
:100CB000DFF840030068401EDFF83813086077E76C
:100CC000C8229C49DFF85C03006802F039FC002070
:100CD0009A49086099480068C0280ED295489749FB
:100CE00009680844007A9349944A126888549348E2
:100CF0000068401C91490860ECE7DFF89003006849
:100D000001280FDBDFF884030268DFF89013C64880
:100D100002F09AFEC449874802F0B0FE0020DFF8D6
:100D20006C13086000208549086084480068C82862
:100D300010D2804881490968405CFF2804D1002016
:100D40007C497E4A126888547C480068401C7B4974
:100D50000860EAE7774802F089FF0100DFF84023E6
:100D6000744802F0F1F9CE480288CE49AE4802F04C
:100D70006BFEAD496F4802F081FE02F077FFA54996
:100D8000086000206D4908606C480068A149096846
:100D900088421CD269480078C00709D46548674971
:100DA0000968405C401E6349644A1268885408E040
:100DB000604862490968405C401C5E495F4A1268AD
:100DC00088545E480068401C5C490860DCE7C82421
:100DD0000025B54E2A002100300002F047FD8D4865
:100DE0000268B149534802F0B5FBAF4802F03EFF3C
:100DF000524908600A20AC49504A126888544F484A
:100E00000068401C4D4908601A20A7494B4A1268E7
:100E100088544A480068401C4849086047480168AF
:100E2000A14802F088F842F210724149414802F0AC
:100E3000BBF83F480068002805D00AA13D4802F0F1
:100E40000DFD002808D10E206B4908606948006834
:100E5000401E6849086003E07248006802F069FBC0
:100E6000A6E600BF4F4B0000256400006248006802
:100E7000102810D102F095FD304908602F48006815
:100E8000010C89B2102002F031FD2C48016889B2B2
:100E9000142002F02BFD1420574908600320554907
:100EA000086054480068411E524A1160002819D059
:100EB00025480068224909680843002812D01E48C6
:100EC00002F00FF841F2883219491A4802F06CF822
:100ED000174800680128E4DB49A1164802F0BEFC6F
:100EE0000028DED04FF40051704802F075FC042158
:100EF0006F4802F071FC4FF41670104908600F48FB
:100F00000068411E0D4A11600028C4D04FF47A7069
:100F100002F068FCF3E700005C7600083E00000089
:100F2000501800204C1C0020650F00086476000853
:100F30005C2D002020290020E4750008642D00208D
:100F4000802D0020842D00207C2D0020902D00205D
:100F5000882D002000080140982D0020847500088D
:100F6000F075000838B504004FF47A7002F03AFCCE
:100F700002F0A4FE204800680028F5D01E48006852
:100F8000042190FBF1F005002800451E00280FD039
:100F900002F094FE4FF4C87002F024FC022002F02C
:100FA000FEF9642002F01EFC022002F0EEF9EBE7ED
:100FB000042011490968104A126892FBF0F200FB04
:100FC000121005002800451E0028CDD002F076FE44
:100FD000642002F007FC022002F0E1F9962002F002
:100FE00001FC022002F0D1F9ECE700008C2D00207A
:100FF000942D0020602D0020702D00206C760008BC
:101000004F4B0000947500080C2D0020202D00206F
:10101000342D00206C2D0020FC750008B82C002019
:10102000742D0020782D0020E42C0020682D002055
:1010300040420F0074760008E8F7FF1F482D00209B
:10104000ECF7FF1FF0F7FF1F707500089A99999948
:101050009999B93F087600087C76000884760008E4
:101060008C760008947600089C760008A475000829
:101070000C75000814760008A4760008AC76000809
:10108000B4760008207600082C7600089C2D0020FD
:1010900098740008B4750008C4750008BC76000890
:1010A000082E002038760008E829002000100140B2
:1010B000000C014080B502F011FE01BD80B500209A
:1010C00000F02AF901BD80B5012000F025F901BD2D
:1010D00080B5022000F020F901BD80B5032000F0AA
:1010E0001BF901BD80B5042000F016F901BD80B5E3
:1010F000052000F011F901BD80B5062000F00CF9C3
:1011000001BD80B5072000F007F901BD80B50820BA
:1011100000F002F901BD80B5092000F0FDF801BD25
:1011200080B50A2000F0F8F801BD80B50B2000F072
:10113000F3F801BD80B50C2000F0EEF801BD80B5DC
:101140000D2000F0E9F801BD80B50E2000F0E4F8B4
:1011500001BD80B50F2000F0DFF801BD80B5102083
:1011600000F0DAF801BD80B5112000F0D5F801BD1E
:1011700080B5122000F0D0F801BD80B5132000F03A
:10118000CBF801BD80B5142000F0C6F801BD80B5D4
:10119000152000F0C1F801BD80B5162000F0BCF8A4
:1011A00001BD80B5172000F0B7F801BD80B518204B
:1011B00000F0B2F801BD80B5192000F0ADF801BD16
:1011C00080B51A2000F0A8F801BD80B51B2000F002
:1011D000A3F801BD80B51C2000F09EF801BD80B5CC
:1011E0001D2000F099F801BD80B51E2000F094F894
:1011F00001BD80B51F2000F08FF801BD80B5202013
:1012000000F08AF801BD80B5212000F085F801BD0D
:1012100080B5222000F080F801BD80B5232000F0C9
:101220007BF801BD80B5242000F076F801BD80B5C3
:10123000252000F071F801BD80B5262000F06CF883
:1012400001F01EFF01BD80B5272000F065F801BD4B
:1012500080B5282000F060F801BD80B5292000F09D
:101260005BF801BD80B52A2000F056F801BD80B5BD
:101270002B2000F051F801BD80B52C2000F04CF877
:1012800001BD80B52D2000F047F801BD80B52E20AE
:1012900000F042F801BD80B52F2000F03DF801BDFF
:1012A00080B5302000F038F801BD80B5312000F065
:1012B00033F801BD80B5322000F02EF801BD80B5B5
:1012C000332000F029F801BD80B5342000F024F867
:1012D00001BD80B5352000F01FF801BD80B5362076
:1012E00000F01AF801BD80B5372000F015F801BDF7
:1012F00080B5382000F010F801BD80B5392000F02D
:101300000BF801BD80B53A2000F006F801BD80B5AC
:101310003B2000F001F801BD70B5040002F0E2FCD2
:1013200005000B480078401C09490870280002F0AD
:10133000DDFC3C2C07D2054850F8240006003000A4
:10134000002800D0B04700F01DF870BD3028002004
:10135000142E002080B501F013F800F03EFA00F0E2
:1013600063FA00F0C0FA00F00EFA02F0CDFC00F0D3
:101370007DFA00F099FA02F03FFE01F005F802F064
:101380006FFF01BD10B50024DFF8C8080078012800
:1013900041D103F01BF80400DFF8100700780028A3
:1013A00006D0DFF808070078401EDFF80017087045
:1013B000DFF8F806007800282AD1DFF8F406007874
:1013C000002825D100F0F9FADFF88C080078DFF862
:1013D0008C18097888421BD0DFF88408DFF8781869
:1013E000097850F82100DFF87C180860DFF87408ED
:1013F0000068406B401CDFF86C1809684863DFF830
:1014000068080068401CDFF86018086002F0F7FF09
:10141000200002F0DFFF10BD80B5DFF8380800784B
:10142000002819D100F0C9FADFF82C080078DFF89D
:101430002C180870DFF82808DFF81C18097850F815
:101440002100DFF820180860DFF818080068DFF8CE
:101450000018086002F0C1FF01BD10B50024022091
:1014600002F0C0F902F0B2FF04000020DFF8FC1720
:101470000860200002F0AEFF642002F0B3F902F031
:10148000A5FF0400DFF8E4070068DFF8E417086050
:101490000120DFF8E0170870200002F09BFF10BD6C
:1014A00070B5002600F0B6FF02F090FF0600DFF8EE
:1014B000C8070068401CDFF8C0170860300002F061
:1014C00089FFDFF890070078012863D1DFF8AC07C7
:1014D0000078002803D0022807D003D30CE00120B5
:1014E00005000FE0002005000CE0012005000120B0
:1014F000DFF88817087005E0012005000020DFF8FC
:101500007C170870EDB2002D44D0DFF87407006836
:10151000040094F82C001F283CD002F057FF06006E
:10152000208D002831D0208D401E2085208D002860
:101530002BD194F82A003721084209D094F82A00C8
:1015400010F0C80084F82A00012084F82B0002E083
:10155000002084F82B0094F82A00000715D4DFF847
:101560002407007894F830100843DFF81817087043
:10157000DFF8140794F82E10405C94F82F100843FD
:10158000DFF8041794F82E2088546469300002F0C4
:1015900021FFBEE770BD2DE9F84F04000D001600D5
:1015A0001F00DFF8E806A17A405C8146DFF8DC0620
:1015B0005FFA89F904EB0901C97A405C82465FFA57
:1015C00089F95FFA8AFA1AEBC9008346DFF89006B8
:1015D0005FFA8BFB50F82B0080460020A8F828000B
:1015E000C8F8245098F82A00B04388F82A0088F8F0
:1015F0002B7098F82A00000717D4DFF888060078C7
:1016000098F830100843DFF87C160870DFF8780689
:101610005FFA89F910F8090098F82F100843DFF8ED
:1016200068165FFA89F901F809002100404600F0C8
:1016300056F8D8F82000002806D0D8F820104046E8
:1016400000F069F8C8F81C405846C0B2BDE8F28FF7
:10165000DFF8FC251268D061DFF8F425126892F8F3
:101660002E200244D27ADFF8E8351B6893F82F3039
:101670001A43DFF8DC351B6893F82E300344DA7226
:10168000827ADFF8CC351B6893F830301A438272C7
:10169000DFF8BC25126892F82E201100DFF8E8254B
:1016A000C9B2525CDFF8A8351B6893F82F309A4313
:1016B000DFF8D435C9B25A54DFF8CC25C9B2525C30
:1016C000002A0BD1DFF8BC251278DFF884351B68BF
:1016D00093F830309A43DFF8AC351A70704710B485
:1016E00090F82E301A00D2B201EB0203DB7A90F8A8
:1016F0002F40A343D2B201EB0204E372D2B201EB5A
:101700000203DB7A002B04D18B7A90F83040A3439C
:101710008B7210BC7047F0B490F82E703C0090F8BB
:1017200030703D0090F82F703E000A0017683B00B3
:10173000002B16D0E4B203EB0407FF7AB743E4B200
:1017400003EB040C8CF80B70E4B203EB0407FF7A94
:10175000002F02D19F7AAF439F72121D17683B0082
:10176000E6E7F0BC70470023837210F10B03190009
:1017700000231A00D2B2042A04DA00230B70491C99
:10178000521CF7E7704770B57821DFF8040500F0C8
:10179000DDF8DFF8FC040500DFF8F804060000209F
:1017A0000400A4B2042C0ADA002028706E603F20E6
:1017B000E8730020287418351836641CF1E70020FF
:1017C0002870002068603F20E87300202874DFF84C
:1017D000C004DFF8C414086070BD0020DFF898145E
:1017E00008600020B14908700020B149087000204D
:1017F000DFF8A81408700020DFF8581408700020E3
:10180000DFF8641408600020DFF86014086000202E
:10181000DFF88C1408600020DFF854140860002002
:10182000DFF85014087070470022DFF858341A703F
:10183000DFF85424100000221100C9B2042904DA90
:1018400000220270401C491CF7E70022DFF80C342C
:101850001A700022DFF800341A700022DFF8043416
:101860001A600022DFF8E8331A60704700B587B0CD
:10187000032004900020039080200290DFF82404CD
:1018800001904FF6FF7000901F23DFF81C24002109
:101890000FF27D1000F01AFA05AADFF810141F20CD
:1018A00000F086FA07B000BD00B587B003200490B1
:1018B000002003904FF480700290DFF8F403019051
:1018C0004FF6FE7000901E23DFF8E82300210FF290
:1018D000651000F0FBF905AADFF8DC131E2000F00C
:1018E00067FA07B000BD70B54FF4F071DFF8CC03B4
:1018F00000F02CF88021DFF8680300F027F8DFF80B
:10190000BC030400DFF8B803050000200600F6B2AF
:10191000052E0AD265613F2084F84800002084F833
:10192000490050345035761CF1E7002060613F20BB
:1019300084F84800002084F849000020D04908605D
:10194000DFF87803DFF87C13086070BD89B20029E6
:1019500004D000220270401C491EF7E7704710B502
:10196000002402F033FD040050480078002820D104
:101970004F48007800281CD100F01FF8B6480078C6
:10198000B6490978884214D0B548B349097850F867
:101990002100B4490860B3480068406B401CB1495D
:1019A00009684863B0480068401CAF49086002F00D
:1019B00022FD200002F00EFD10BDB449B14A12789C
:1019C000895C0800C0B2B149AF4AC0B2125C895C00
:1019D00011EBC001A04A11707047020000231800EB
:1019E0000B78002B05D00B781370491C521C401C3F
:1019F000F6E700231370C0B2704701000022100008
:101A00000A78002A02D0491C401CF9E7C0B270478E
:101A100038B50400002502F0D9FC050093480068A1
:101A2000401C92490860280002F0D4FC00F0AEFC93
:101A3000F1E7000038B5040000258E480078002842
:101A400003D1C82001F0CEFEF7E789480068642181
:101A5000B0FBF1F08649086085480068002805D190
:101A6000002099490870FF2000F052FA02F0AEFC05
:101A700005007E4800688A49086000207B490860AC
:101A8000280002F0A7FC8648006879490968B0FB85
:101A9000F1F0D0F164008C49087000F078FC00F09F
:101AA00009F8642001F09EFEE0E70000142E0020FB
:101AB000152E00207CB500200600F6B2202E1ADA82
:101AC00069463000C0B200F0CCF90500EDB2002D3F
:101AD0000FD16348F6B250F826000400002C08D05D
:101AE000012C06D0A068E16800EB81002064019819
:101AF0006064761CE1E773BD2DE9F24F8346150063
:101B00001E000A9FDDF82C800C9C5FF0000A02F09A
:101B10005DFC82466B4800688146B9F1000F00F019
:101B20009180D9F8140067490860504602F052FCD1
:101B30000098C9F8000089F82CB0002089F82A0024
:101B4000002089F82B000020A9F82800C9F804809B
:101B5000C9F80C70C9F80850A9F81040A9F812602B
:101B6000002089F831005846C0B2C00889F82E001C
:101B70001BF0070089F82D00012099F92E108840EC
:101B800089F83000012099F92D10884089F82F003C
:101B90000020C9F81C000020C9F820000020C9F866
:101BA00024000020C9F834000020C9F83C000020BF
:101BB000C9F838000020C9F840000020C9F84400E6
:101BC0003F2089F84800002089F84900484600F085
:101BD00020FC484600F0D9FB02F0F8FB8246204882
:101BE0005FFA8BFB40F82B9025480068C9F8140079
:101BF0000020C9F8180022480068002803D02048B7
:101C00000068C0F818901E48C0F800901D48007881
:101C100099F8301008431B4908701B4899F82E109A
:101C2000405C99F82F100843174999F82E208854E2
:101C30001A480078401C19490870504602F0CAFB47
:101C4000002003E0504602F0C5FB4220BDE8F28FC1
:101C5000DC2D0020192E0020172E0020162E00202B
:101C6000B02A0020E42D0020C42D0020D82D002013
:101C7000CC2D0020132E0020F02D00201B2E002044
:101C8000E82D0020182E0020D42D0020AC72000872
:101C9000302B0020482B0020C82D00201A2E0020B9
:101CA000D02D0020502400204C260020E47600088F
:101CB000501C00204C200020EC760008502600200C
:101CC000A0260020E02D0020122E00202DE9F34F49
:101CD00085B016001F00109CDDF84480DDF84890A8
:101CE000DDF84CA0149D5FF0000BFFB2202F01DB4C
:101CF0002A205AE002F06AFB8346DFF8FC020078F3
:101D0000002804D0584602F065FB3C204DE0DFF887
:101D1000D402FFB250F82700002842D10120DFF89A
:101D2000C412FFB241F82700584602F053FB2A00C4
:101D300092B24946404600F061F92B009BB2320056
:101D40000699059800F024FB0490280080B20290C8
:101D5000CDF804A0CDF8009023009BB24246049930
:101D60003800C0B2FFF7C8FE8DF80C009DF80C00DB
:101D7000002807D1DFF87C02007801280ED1FFF798
:101D8000EEFD0BE002F022FB83460020DFF8541248
:101D9000FFB241F82700584602F01CFB9DF80C00EA
:101DA00003E0584602F016FB282007B0BDE8F08F8C
:101DB0002DE9F84304000D0016005FF00009002E25
:101DC0004DD0E4B2202C05DBE4B2FF2C02D02A2057
:101DD000307044E0002D02D10C2030703FE0864886
:101DE0000078002802D01220307038E002F0EEFABD
:101DF0008146E4B2FF2C04D17B48006890F82C00A7
:101E000004007848E4B250F824008046B8F1000F8E
:101E100005D1484602F0DEFA432030701FE0B8F1E9
:101E2000010F05D1484602F0D5FA4320307016E084
:101E30002800FFF7E2FD0700FFB2082F05DB484648
:101E400002F0C8FA4120307009E0290018F148007A
:101E5000FFF7C3FD484602F0BDFA00203070BDE830
:101E6000F1832DE9F04704000D005FF0000AE4B2B1
:101E7000202C04DBE4B2FF2C01D02A2046E0002D08
:101E800001D1092042E0002028600020686002F0B3
:101E90009DFA8246E4B2FF2C04D15348006890F8C2
:101EA0002C0004004F48E4B250F824000600002E35
:101EB00004D1504602F08EFA432027E0012E04D1CF
:101EC000504602F087FA432020E0307CC00704D45B
:101ED000504602F07FFA452018E000208046F06866
:101EE0008146B0680700504602F074FA3800071DBA
:101EF0000068002802D118F10108F7E75FEA8800BE
:101F00002860B9EB0800800068600020BDE8F08719
:101F10002DE9F04104005FF00008E4B21F2C01D16C
:101F200047205CE0E4B21F2C04DBE4B2FF2C01D0BC
:101F30002A2054E002F04AFA8046E4B2FF2C07D18E
:101F40002948006890F82C000400012005000CE0EE
:101F500020002549096891F82C10C0B2884202D1AE
:101F60000120050001E0002005001E48E4B250F801
:101F700024000600002E04D1404602F02BFA48202F
:101F80002DE0012E04D1404602F024FA432026E041
:101F900096F82E0007001548FFB2C05D96F82F1086
:101FA00088431249FFB2C8551048FFB2C05D0028EF
:101FB00006D10F48007896F8301088430C49087015
:101FC00096F82A0050F0080086F82A00404602F0F1
:101FD00001FAEDB2012D01D1FFF7C1FC0020BDE8EF
:101FE000F0810000B02A0020DC2D0020D42D00203C
:101FF000182E0020192E0020142E0020D30708D5FB
:10200000930706D5002904D0491E00230360001D54
:10201000F8E7704780B5A14800F024FB9F4840686E
:1020200002BD10B5FFF7F6FF0400200010BD10B58B
:1020300000F038FA5FF4803000F063FA40F6FF7089
:102040000400002C05D000F087FA012801D0641E9E
:10205000F7E7022002F00AFA102002F027FA5FF4F4
:10206000E0115FF4403000F097FA012000F0A2FA8E
:1020700040F6FF700400002C06D0392000F091FBE0
:10208000002801D1641EF6E7002000F0A2FA00202B
:1020900000F0B3FA4FF4806000F0A5FA4FF400406E
:1020A00000F0B6FA022002F0E1F9002002F0EEF9A9
:1020B000102002F0FBF9022000F081FA10BD80B57B
:1020C0000121042000F03CFBA220ADF80000032019
:1020D0008DF8020010208DF803006946704801F069
:1020E000D3FA0121082000F02BFB41F20700ADF8E4
:1020F000000003208DF8020010208DF803006946CF
:10210000684801F0C1FA0121102000F019FB4FF4DA
:102110000050ADF800006946634801F0B5FA0321AC
:10212000604801F059FB04215E4801F058FB4FF470
:1021300000515D4801F053FB01BD00B589B001219C
:10214000042000F0FDFA18208DF803000420ADF8FB
:10215000000003208DF802006946514801F094FA0E
:1021600004208DF803000820ADF8000069464C48B3
:1021700001F08AFA01215FF4003000F0F0FA00204B
:10218000ADF808000020ADF80A004FF40070ADF87B
:102190000C000020ADF80E0002A9444802F0FAF944
:1021A0005FF4E13004900020ADF814000020ADF899
:1021B00018000020ADF816000020ADF81C000C201F
:1021C000ADF81A0004A9394802F082F90121374814
:1021D00002F0F2F926208DF8040001208DF80500A8
:1021E00001208DF8060001208DF8070001A802F0FB
:1021F00055FA09B000BD00B587B00121042000F0F8
:102200009FFA5120ADF8000000208DF803006946C8
:10221000234801F039FA01214FF4007000F090FAE0
:10222000234802F097FA0020019001208DF8080061
:1022300000208DF809005FF46020039000200490D6
:1022400001208DF8140001A9194802F0B5FA012106
:10225000174802F0D9FA164802F0E3FA144802F0DF
:10226000E5FA0028FAD1124802F0ECFA104802F020
:10227000EEFA0028FAD107B000BD80B503208DF832
:10228000020014208DF803004FF44060ADF8000008
:102290006946044801F0F8F901BD0000F82C00205F
:1022A00000080140000C01400010014000440040C3
:1022B0000024014080B501215FF0C05000F04FFACA
:1022C000012002F06FFB182001F017FB4AF2A55124
:1022D00088421FD001F002FB012000F0A3F9412049
:1022E00000F05FFA0028FAD04FF4807000F0B0F9E7
:1022F000012000F0B3F901F07EFB01F077FB47F617
:10230000FF7001F065FB01F071FB4AF2A551182046
:1023100001F0ECFA01BD80B501214FF4006000F03E
:102320001EFA45F2555001F0BDFC042001F0BEFC40
:1023300040F6FF7001F0BEFC01F0C0FC01F0C3FCF0
:1023400001BD80B5FFF773FEFFF7B4FFFFF7B7FEDF
:10235000FFF751FFFFF791FFFFF7EFFEFFF7DBFFFE
:1023600001BD03681AB95A1E026008467047197801
:1023700011B94FF0FF307047591C01601878704751
:102380000020434908807047704770477047704786
:1023900030B4040010005FF080750560001F046019
:1023A000001F7FF001050560001F5FF0123505601A
:1023B000001F5FF003350560001F5FF00235056008
:1023C000001F5FF001350560001F0160001F5FF016
:1023D00011350560001F5FF010350560001F5FF0CC
:1023E00009350560001F5FF008350560001F5FF0CC
:1023F00007350560001F5FF006350560001F5FF0C0
:1024000005350560001F5FF00435056030BC70477E
:102410007047704780B51E480088401C1C490880E2
:102420001B480088642804DB00201949088001F05B
:1024300098FD01BD10B501F0C9FF040015480078F2
:10244000401C14490870200001F0C4FFFFF728F871
:10245000FEF798FF10BD10B5FFF7E3FD4FF47A715A
:10246000B0FBF1F00400601E0B490860FF200B492F
:1024700008700B48006850F00500094908600848DA
:10248000006850F002000649086010BD000000001E
:102490000E2E0020142E002014E000E023ED00E0BA
:1024A00010E000E0DFF85C03006850F00100DFF8A6
:1024B00054130860DFF850030068DFF85013084039
:1024C000DFF844130860DFF83C030068DFF84013CE
:1024D0000840DFF830130860DFF82803006830F4A4
:1024E0008020DFF820130860DFF81C03006830F458
:1024F000FE00DFF8141308600020DFF818130860EE
:102500007047DFF80013096831F48031DFF8F422F6
:102510001160DFF8F012096831F48021DFF8E4225D
:1025200011600100B1F5803F03D0B1F5802F09D0D3
:1025300011E0DFF8D012096851F48031DFF8C422CD
:10254000116008E0DFF8BC12096851F4A021DFF83F
:10255000B4221160FFE7704738B5002000900024D6
:102560000025312000F01DF905000098401C009066
:10257000EDB2002D03D10098B0F5A06FF1D131205C
:1025800000F00FF9002802D00120040001E0002033
:1025900004002000C0B232BD0022DFF86C321B689C
:1025A0001A0032F47C1251EA00031A43DFF8583261
:1025B0001A607047C0B2DFF86012086070470021EF
:1025C000914A126811008908890001438E4A1160FE
:1025D000704700218C4A1268110031F0F00101436C
:1025E000894A116070470021874A1268110031F44E
:1025F000E0610143844A116070470021824A1268F9
:10260000110031F4605151EAC0017F4A11607047F6
:1026100000217D4A1268110031F4404101437A4A99
:102620001160704700217D4A117000217B4A1170B2
:10263000C0B20100012902D0042904D007E0012121
:10264000764A117003E00521744A1170FFE7704764
:10265000724909680143714A11607047C0B27049FC
:102660000860704730B40021002400220023664D2A
:102670002D6815F00C0529000D00002D04D0042D47
:1026800005D0082D06D026E0664D056025E0654D95
:10269000056022E05C4D2D6815F470152C00A40C2B
:1026A000A41C594D2D6815F480352A00002A04D148
:1026B0005D4D05FB04F505600CE0534D2D68AD0341
:1026C00004D5594D05FB04F5056003E0554D05FBA8
:1026D00004F5056001E0534D05604B4D2D6815F084
:1026E000F00529000909514D6D5C2B000568DD409E
:1026F0004560454D2D6815F4E0652900090A4B4DEC
:102700006D5C2B004568DD4085603F4D2D6815F4FC
:1027100060552900C90A454D6D5C2B004568DD40B8
:10272000C560394D2D6815F440452900890B404D91
:102730006D5C2B00C568B5FBF3F5056130BC7047D7
:10274000C9B2002905D03B4A12680243394B1A60CE
:1027500004E0384A12688243364B1A607047C9B2A7
:10276000002905D0344A12680243334B1A6004E052
:10277000314A12688243304B1A607047C9B200294F
:1027800005D02E4A126802432C4B1A6004E02B4AF3
:1027900012688243294B1A607047C0B2284908600A
:1027A000704710B402000023002400201100C9B2B9
:1027B0004909C9B20B00012B03D1124909680C0069
:1027C00008E0022B03D1154909680C0002E01D49FD
:1027D00009680C00D2B212F01F010B002100D94091
:1027E000C90702D50121080001E000210800C0B29C
:1027F00010BC70471348006850F0807011490860A1
:102800007047000000100240041002400000FFF872
:10281000FFFFF6FE08100240600042422010024016
:102820003C04424200127A0000093D00D4750008C1
:1028300000770008181002401C1002400C100240E3
:10284000400442422410024038B500240A252800E2
:10285000451E00281CD0072301220021DFF8540B5D
:1028600002F00EF80121DFF84C0B01F0FCFF012013
:1028700000F0B8FF0221DFF83C0B02F085F80028D9
:10288000F8D0DFF8300B02F072F800190400DEE730
:102890004FF4A57000FB04F04FF4805190FBF1F071
:1028A00080B232BD38B5002464252021DFF8D00B7A
:1028B00000F092FF642000F095FF2800451E0028DC
:1028C0001CD0072301220421DFF8E80A01F0D8FF19
:1028D0000121DFF8E00A01F0C6FF012000F082FFCD
:1028E0000221DFF8D00A02F04FF80028F8D0DFF814
:1028F000C40A02F03CF800190400DEE72021DFF8EA
:10290000800B00F06CFF212000FB04F04FF480519D
:1029100090FBF1F080B232BD38B5002464258021EF
:10292000DFF85C0B00F058FF642000F05BFF28002C
:10293000451E00281CD0072301220621DFF8740A57
:1029400001F09EFF0121DFF86C0A01F08CFF0120ED
:1029500000F048FF0221DFF85C0A02F015F80028B9
:10296000F8D0DFF8500A02F002F800190400DEE7A0
:102970008021DFF80C0B00F032FF212000FB04F077
:102980004FF4805190FBF1F080B232BD30B58DB084
:10299000040001F006F800906D46280002F056F899
:1029A000010001A82C2200F0C1FF200001A92C2267
:1029B00000F0BCFF0DB030BD0FB410B501F016F83B
:1029C00002AC200002F050F800F0F6FF01F00EF823
:1029D00010BC5DF814FB10B58CB00020DFF8A81A0D
:1029E00008600020DFF8A41A086000F0DAFFDFF8C2
:1029F000A01A0860082000F080FF0400A4B20C2098
:102A000000F07BFF50EA0440DFF8881A08601020CD
:102A100000F073FF0400A4B2142000F06EFF50EA2F
:102A20000440DFF8741A0860DFF8640A0068DFF811
:102A3000641A0968401A012803DB0120DFF8481AEC
:102A40000860DFF84C0A0068DFF84C1A0968401A81
:102A5000B0F5E15F03DD0120DFF8301A08600420E3
:102A600000F04BFF4AF2A551884207D00120DFF861
:102A7000181A08600120DFF8141A08606846FFF78A
:102A800085FFDFF8180A69462C2200F04FFFDFF8B7
:102A90000C0A4069752807DA0120DFF8EC19086094
:102AA0000120DFF8E81908600CB010BD0F21080004
:102AB0000100481E0029FBD1704780B54FF400612A
:102AC000DFF8600B00F088FEFFF7F0FF4FF4806145
:102AD000DFF8500B00F080FEFFF7E8FF4FF40061D5
:102AE000DFF8400B00F06BFE002801D100201AE057
:102AF0004FF40061DFF82C0B00F071FEFFF7D6FFFA
:102B00004FF48061DFF81C0B00F069FEFFF7CEFF89
:102B10004FF40061DFF80C0B00F051FE002801D0EB
:102B2000002000E0012002BD80B54FF40061DFF815
:102B3000F40A00F054FEFFF7B9FF4FF48061DFF8AC
:102B4000E40A00F049FEFFF7B1FF4FF40061DFF83F
:102B5000D40A00F041FEFFF7A9FF01BD80B54FF494
:102B60000061DFF8C00A00F03AFEFFF79FFF4FF464
:102B70008061DFF8B00A00F02FFEFFF797FF4FF4F7
:102B80008061DFF8A00A00F02AFEFFF78FFF4FF404
:102B90000061DFF8900A00F01FFE01BD80B54FF420
:102BA0000061DFF8800A00F017FEFFF77FFF4FF4A7
:102BB0008061DFF8700A00F00FFEFFF777FF4FF437
:102BC0008061DFF8600A00F00AFEFFF76FFF01BDC9
:102BD00038B504004FF48061DFF8480A00F0FFFDCB
:102BE00000200500082D23D2200606D54FF40061F1
:102BF000DFF8300A00F0F0FD05E04FF40061DFF887
:102C0000240A00F0ECFD6400FFF750FF4FF48061F0
:102C1000DFF8100A00F0E0FDFFF748FF4FF4806195
:102C2000DFF8000A00F0DBFDFFF740FF6D1CD9E77D
:102C30004FF40061DFF8EC0900F0CEFDFFF736FF3E
:102C40004FF48061DFF8DC0900F0C6FDFFF72EFFCE
:102C50004FF40061DFF8CC0900F0B1FD00280DD081
:102C60004FF48061DFF8BC0900F0B9FD4FF400615A
:102C7000DFF8B00900F0B0FD00200CE04FF48061F7
:102C8000DFF8A00900F0ABFD4FF40061DFF8940914
:102C900000F0A2FD012032BD38B54FF40061DFF82D
:102CA000840900F099FD4FF48061DFF8780900F0A5
:102CB00096FD0020050000200400082C1CD24FF4D3
:102CC0008061DFF8600900F087FDFFF7EFFE6D001F
:102CD0004FF40061DFF84C0900F071FD002801D0CD
:102CE00055F001054FF48061DFF8380900F077FDF9
:102CF000FFF7DCFE641CE0E72800C0B232BD2DE91E
:102D0000F04104000D001600FFF7D7FE600080467A
:102D10004046C0B2FFF75CFF00200700B74204D274
:102D2000E85DFFF755FF7F1CF8E7FFF7FDFEBDE804
:102D3000F0812DE9F04104000D001600FFF7BDFE03
:102D4000600050F0010080464046C0B2FFF740FFEF
:102D500000200700701E874207D2FFF79DFF2870F2
:102D60006D1CFFF7FBFE7F1CF4E7FFF795FF287053
:102D7000FFF714FFFFF7D8FEBDE8F08138B57F20DC
:102D80008DF80000012269464420FFF7B8FF0222B7
:102D900069464420FFF7CDFF9DF80000302838D168
:102DA0009DF80100012834D101208DF80000C220D7
:102DB0008DF8010011208DF802000322694644209D
:102DC000FFF79DFF4FF47A7000F00CFD00208DF8A6
:102DD0000000012269464420FFF791FF0222694664
:102DE0004420FFF7A6FF01209DF80010C9B2090991
:102DF000884004009DF80000000210F470609DF807
:102E000001100843050005FB04F06421B0FBF1F05C
:102E100001E05FF0FF3032BD10B582B05FF0FF30EF
:102E2000DFF8041808605FF0FF30DFF80018086072
:102E3000FF208DF80000012269464020FFF75FFF68
:102E4000022269464020FFF774FF9DF80000102819
:102E500046D19DF80100502842D102208DF8000093
:102E600015208DF8010000208DF80200032269462C
:102E70004020FFF744FF00208DF800000122694642
:102E80004020FFF73CFF642000F0ACFC04226946C0
:102E90004020FFF74EFF9DF800009DF8011051EA19
:102EA0000020040040F2726000FB04F04FF6FF7156
:102EB000B0FBF1F0B0F5C870DFF86C1708609DF852
:102EC00002009DF8031051EA00200400642000FB7A
:102ED00004F04FF6FF71B0FBF1F0DFF85017086017
:102EE00013BD10B582B00400DFF844070460200071
:102EF00000F0BCFEDFF83C170870002001F01CFE5B
:102F0000DFF834170860012240F22771DFF82C0740
:102F100001F060FB6A460021DFF81C07006801F041
:102F2000C3FE6A460021DFF81007006801F02FFE9B
:102F30009DF8000016BD38B504000D00DFF8F0065E
:102F40000460DFF8F0060570002001F0F5FDDFF801
:102F5000E8160860012240F22771DFF8E00601F070
:102F600039FB6A460021DFF8D006006801F09CFEBC
:102F70006A460021DFF8C006006801F008FE9DF8EF
:102F8000000032BD38B504000D00DFF8B40600685B
:102F900001F00CFF31BD38B504000D00DFF8A006CC
:102FA000006801F003FF31BD7FB504000D0016007D
:102FB000DFF8900604600020DFF88C16087000200F
:102FC000DFF8801609680870002001F0B5FDDFF811
:102FD00070160860DFF8640601F027FB012240F25A
:102FE0002551DFF8580601F0F5FA03A80290DFF842
:102FF0005C06019000200090DFF854360222032185
:10300000002000F0A1FEDFF84C16086003A8029033
:103010004CA0019000200090DFF83C360222642092
:1030200096FBF0F1002000F08FFEDFF8301608600C
:1030300003A9DFF82806006800F048FF03AA002172
:10304000DFF8FC05006801F02FFE03A9DFF8040695
:10305000006800F0F2FE03A9DFF80006006800F047
:10306000ECFE03AA0021DFF8D805006801F08FFD0F
:10307000DFF8D405007828609DF80C0004B070BD1E
:1030800080B540F22771DFF8B40501F0D2FA0028CC
:1030900028D0DFF8A0050078002817D0DFF89005C9
:1030A0000068017889B2DFF8940501F0BAFADFF818
:1030B00080050068401CDFF878150860DFF87405AB
:1030C0000078401EDFF86C1508700BE0002240F21B
:1030D0002771DFF8680501F07DFADFF85C0500680C
:1030E00001F064FE40F22551DFF8500501F0A1FA2D
:1030F000002825D06946DFF85C05006800F0E6FE90
:10310000DFF8380501F091FADFF838150968087022
:10311000DFF834050078C72812DADFF828050068E0
:10312000401CDFF820150860DFF81C050078401C03
:10313000DFF8141508700020DFF80815096808701A
:1031400001BD00006F76660030B4002300241480B7
:10315000002423009BB28B4206DA14889BB2C55C24
:103160002C1914805B1CF5E71488E443641C14805C
:1031700030BC70472DE9F047824600271FFA8AFAD3
:10318000504601F04FFE01F05DFEDFF8D424DFF879
:10319000D43401F07FFE01F0A9FF82461FFA8AFABB
:1031A00040F6B930824502DB41F2883049E0002028
:1031B00004000B2C43DADFF8B00430F824000500DB
:1031C000DFF8A40400EB840080880600DFF8980490
:1031D00000EB840040888046DFF88C0400EB84001C
:1031E000C08881461FFA8AFAAA4526DB1FFA8AFAA6
:1031F000B24522DA1FFA8AFABAEB050001F008FE9E
:103200000700701B01F004FE0100380001F09AFF76
:103210000700B9EB080001F0FBFD390002F010F8DF
:103220000700404601F0F4FD390002F075F8070090
:10323000380002F0B3F880B203E0641CB9E74FF63F
:10324000FF70BDE8F0872DE9F04104000025A0786B
:103250002B2801D0002096E0207C2C2801D10020D2
:1032600091E00020050000200600C82E0EDAA05DC7
:103270002C2800D16D1C062D06D104EB06004078E9
:10328000312803D000207EE0761CEEE70522DFF82F
:10329000DC1314F10A0002F0A3F8002872D114F133
:1032A00010000700DFF8C803804618F10608002068
:1032B0000500062D07DA387888F800007F1C18F121
:1032C00001086D1CF5E77F1DDFF8A803804600208C
:1032D0000500142D13DA3878302802DB38783A28C4
:1032E00002DB38782E2807D1387888F800007F1C58
:1032F00018F101086D1CECE7002088F80000FF1CA5
:10330000DFF87403804600200500142D13DA3878A6
:10331000302802DB38783A2802DB38782E2807D1AB
:10332000387888F800007F1C18F101086D1CECE764
:10333000002088F80000DFF84413380000F08EFA0F
:103340000700002F01D100201DE0BF1D082006004E
:103350003000461E002806D04AA1380000F07EFA50
:1033600007007F1CF4E7DFF8080380460020050013
:10337000062D07DA387888F800007F1C18F101085C
:103380006D1CF5E70120BDE8F08110B504002000B8
:10339000010089B2DFF88C0200F01EFA10BD10B5F2
:1033A00004002000010089B2DFF8780200F017FA6B
:1033B00010BD0000002401402DE9F04104000D0083
:1033C0001600FF2C01D9002048E0B6F5807F01D916
:1033D000002043E04FF4807000FB04F08046812E13
:1033E0001CD3FFF76AFBA020FFF7F2FB5FEA18206F
:1033F000C0B2FFF7EDFB4046C0B2FFF7E9FB00208B
:103400000700802F05DA2878FFF7E2FB6D1C7F1C90
:10341000F7E7FFF789FB803E18F18008052000F0F0
:10342000E1F9FFF74AFBA020FFF7D2FB5FEA182083
:10343000C0B2FFF7CDFB4046C0B2FFF7C9FB30007A
:10344000461E002804D02878FFF7C2FB6D1CF6E763
:10345000FFF76AFB052000F0C5F90120BDE8F08107
:103460001CB5040068468649D1E90023C0E9002361
:1034700008226946E4B22000FFF79EFF012016BD36
:10348000000801402C0000007C2D0020802D002031
:10349000A02D0020A42D0020A82D0020B82C002055
:1034A0002DE9F04104000D001600FF2C01D9002089
:1034B00033E0B6F5807F01D900202EE04FF4807014
:1034C00000FB04F08046FFF7F8FAA020FFF780FB2E
:1034D0005FEA1820C0B2FFF77BFB4046C0B2FFF79F
:1034E00077FBFFF7EAFAA120FFF772FB0020070045
:1034F000701E874206D2FFF7CFFBE855FFF72EFB81
:103500007F1CF5E7FFF7C8FBE855FFF747FBFFF720
:103510000BFB022000F066F90120BDE8F08170B5D8
:1035200004000D001600320029002000FFF744FFC0
:1035300070BD10B504002000C0B2FFF791FF10BDB0
:1035400070B504000D001600320029002000FFF7BE
:10355000A7FF70BD70B403000800002631000026EC
:10356000350091425ADA5E5CF6B2B608340014F0C7
:103570003F04444E3668E4B2365D46556D1C5E5CD1
:10358000360116F0300634004E1C96420CDB3D4EE0
:103590003668E4B2365D46556D1C3D2646556D1CB9
:1035A0003D2646556D1C39E003EB01067678F6B2F0
:1035B00054EA1614334E3668E4B2365D46556D1C37
:1035C00003EB01067678B60016F03C0634008E1C3C
:1035D000964209DB2B4E3668E4B2365D46556D1CCB
:1035E0003D2646556D1C19E003EB0106B678F6B290
:1035F00054EA9614234E3668E4B2365D46556D1C87
:1036000003EB0106B67816F03F0634001D4E36680F
:10361000E4B2365D46556D1CC91CA2E7002646552E
:1036200070BC7047000C0140942D0020982D0020A4
:10363000AC2D0020102E0020B42D002000440040AE
:10364000B82D0020B02D0020112E0020C4760008D7
:10365000852F0008C02D0020972F0008BC2D0020CA
:103660009A9999999999F13F68740008CC76000865
:10367000342D00200C2D0020202D0020D4760008B1
:10368000DC76000800000020F0B5002700220023AF
:1036900000240025002691F803C01CF00F0C67469B
:1036A00091F803C05FEACC6C03D591F802C05CEAE4
:1036B000070791F800C05FEA0C6C3AD0D0F800C060
:1036C00065465FF0000C6346082B31D25FF0010CB9
:1036D0001CFA03FC6446B1F800C014EA0C0C624604
:1036E000A24223D15FEA830C64465FF00F0C1CFA00
:1036F00004FC6646B54317FA04FC5CEA050591F83C
:1037000003C0BCF1280F06D15FF0010C1CFA03FCCA
:10371000C0F814C00AE091F803C0BCF1480F05D10D
:103720005FF0010C1CFA03FCC0F810C05B1CCBE777
:103730000560B1F800C0BCF1FF0F3FDDD0F804C058
:1037400065465FF0000C6346082B36D25FF0010C33
:1037500013F1080E1CFA0EFC6446B1F800C014EA1E
:103760000C0C6246A24226D15FEA830C64465FF0ED
:103770000F0C1CFA04FC6646B54317FA04FC5CEA1D
:10378000050591F803C0BCF1280F07D15FF0010CCB
:1037900013F1080E1CFA0EFCC0F814C091F803C017
:1037A000BCF1480F07D15FF0010C13F1080E1CFAB1
:1037B0000EFCC0F810C05B1CC6E74560F0BD0200FF
:1037C0000020936889B20B4202D00123180001E067
:1037D00000231800C0B2704789B20161704789B2F6
:1037E0004161704770B50400002618480078002831
:1037F0002BD1A4B2002C28D000F0E8FD060014481C
:10380000006890F82E0005001248EDB2405D1049A6
:10381000096891F82F1088430E49EDB248550D48BC
:10382000EDB2405D002808D10B48007808490968CE
:1038300091F83010884308490870054800680485ED
:10384000300000F0C7FDFEF78AF870BD142E00208E
:10385000DC2D0020D42D0020182E002038B50400C7
:103860000D002900200001F0D1FD32BD62F30F22CE
:1038700062F31F42401810F0030308D0C91A1FD387
:10388000DB0748BF00F8012D28BF20F8022D1300E8
:1038900030B414461546103928BF20E93C00FAD848
:1038A000490728BF20E90C0048BF40F8042D8900D3
:1038B00028BF20F8022D48BF00F8012D30BC70470A
:1038C000C91818BF00F8012DCB0728BF00F8012D3B
:1038D00070470268531C03601170704780B5012067
:1038E000FEF75BFF0020FEF758FF01BD80B200F13C
:1038F000804212F5D8421180704780B200F18040BA
:1039000010F5D840008880B27047010062B38B0781
:1039100008D0521E11F8013B00F8013B00F0248052
:103920008B07F6D1830740F0208000BF103A07D301
:1039300030B4B1E83810103AA0E83810F9D230BCF1
:10394000530724BFB1E80810A0E8081044BF51F89D
:10395000043B40F8043BD20724BF31F8022B20F887
:10396000022B44BF0B7803707047083A07D3B1E8C5
:103970000810083A40F8043B40F804CBF7D253074C
:10398000E4E705002248008850F010002049088034
:1039900070471F4800884FF6EF7108401C490880A7
:1039A000704700201B49098808001B49098889B213
:1039B00080B250EA0140704710B50400FFF7E2FF03
:1039C000200C1549088013480480FFF7E2FF10BD62
:1039D00010B50400FFF7D6FF200C10F00F000F49C0
:1039E00008800F480480FFF7D4FF10BD0848008806
:1039F0008006FBD57047064800884FF6F7710840EF
:103A000003490880024800880007FBD57047000082
:103A1000042800401C2800401828004008280040C6
:103A20000C2800400DB400B582B004A800900A46EE
:103A30006B4603A9034878440A3001F01DFD06BC1B
:103A40005DF810FB1FE9FFFF0CB41CB5044604A889
:103A500001900A46009401AB694607487844183043
:103A600001F074FF009A0021117000285CBF0098DB
:103A7000001B16BC5DF80CFB5BFEFFFF024600E07E
:103A8000521C1378002BFBD111F8013B137012F874
:103A9000013B002BF8D17047010040F10980F4464A
:103AA000404200F005F851F000416047010000BFBE
:103AB00009D0B0FA80F18840C91CC1F584610905BC
:103AC00001EBD02140057047B0B581EA030C0CF042
:103AD000004C40F2FF7515EA11541DBF15EA13574B
:103AE000AC42AF4239E0E41923EA455343F4801372
:103AF000C90241F0004141EA505EC7021100A7FB34
:103B0000020200284FF00000EEFB01204FF0000100
:103B1000E3FB072118BF42F0010240180021494190
:103B2000E3FB0E01A4F580640F0302D25200404172
:103B3000494154F101046CDD470872F1004250F133
:103B4000000051EB0451A1F580115CBF41EA0C016A
:103B5000B0BD4CEA05510020B0BD05EA1357AC4298
:103B600014BFAF4241E050EA410E1CBF52EA430E7F
:103B700002E061460020B0BD24423C441BD15FEA14
:103B8000070EF6D0090302BF01460020AEF1140E65
:103B9000B1FA81F7AEEB070401FA07FE0C37C7F163
:103BA000200100FA07F7C8404EEA000E23EA455309
:103BB00043F48013A2E733F00043B3FA83F704BF62
:103BC000B2FA82FE77440B3FE41BB7F1200E2FBF01
:103BD00002FA0EF3BB40C7F1200E22FA0EFE38BFE8
:103BE00043EA0E03BA40641C82E750EA410E14BF58
:103BF00052EA430E6FF000014FF4001717EB430F2A
:103C00008ABF194617EB410FB5E74CEA0551002072
:103C1000B0BDD4F10104B4F120070FDAC4F12007DC
:103C2000520828BF42F0010210FA07F501FA07F71F
:103C3000E1BF2A43E0403843E1400FE0352C98DCF7
:103C4000C7F1200452EA400220FA07F218BF42F0FE
:103C5000010231FA07F0A1400A43002172F100424B
:103C600050F1000051EB0C01B0BD080000F1010360
:103C7000810704D010F8011B89B18107FAD10268CD
:103C8000B2F10131914311F0803F04BF50F8042F8D
:103C9000F6E710F8011B11B110F8011BFBE7C01A81
:103CA0007047010080B20A4908607047C0B20949F4
:103CB0000860704780B20849086070474AF6AA2039
:103CC0000349086070474CF6CC40014908607047D2
:103CD00000300040043000400830004072B67047A9
:103CE00062B67047EFF3108072B6704780F31088A9
:103CF0007047B0FA80F0704790FAA0F0704730BF7C
:103D0000704720BF7047180070B578210C48FDF748
:103D10001DFE0B4804000B48050000200600B6B24B
:103D2000042E04DA256018341835761CF7E70020D5
:103D3000206003480149086070BD0000EC2D0020A0
:103D4000A82B0020C02B00202DE9F84F04000D0007
:103D500016001F00DDF82880DDF82C90DDF830A07B
:103D6000BAF1000F01D1002065E0F6B23000012861
:103D700009D002280FD1002D04D183208AF8000039
:103D8000002058E00CE0002C04D182208AF80000CA
:103D9000002050E004E084208AF8000000204AE07F
:103DA000DFF888040078002804D08B208AF800000F
:103DB000002040E000F0E6F900F0DCF88346BBF1BB
:103DC000000F06D100F0E6F986208AF800000020F6
:103DD00031E001208BF82900CBF81840CBF81C50BB
:103DE0008BF82860CBF80470CBF80880B9F1000F8D
:103DF0001BD04846FDF701FE8DF800009DF800003D
:103E0000082805DA49461BF12000FDF7E6FD0CE025
:103E100023208BF8200000208BF821008C208AF8CA
:103E2000000000F0B7F9584605E000F0B3F90020B3
:103E30008AF800005846BDE8F28F38B504000D003E
:103E4000002D01D1002040E0002C03D18A202870F1
:103E500000203AE02078642803D0892028700020D0
:103E600033E0DFF8C8030078002803D08B202870E7
:103E700000202AE000F086F994F82900002819D0E3
:103E800002280ED00DD303281AD1200000F051F9DA
:103E9000200000F08BF800F07DF900202870012050
:103EA00013E0200000F082F800F074F90020287080
:103EB00001200AE000F06EF987202870002004E05D
:103EC00000F068F98D202870002032BD38B504005C
:103ED0000D00002D01D1002042E0002C03D18A20EA
:103EE000287000203CE02078642803D089202870C6
:103EF000002035E0DFF834030078002803D08B2061
:103F0000287000202CE000F03DF994F829000028EA
:103F10001BD002280FD00ED303281CD1200000F0A4
:103F200008F90021200000F0CBF800F033F9002060
:103F30002870012014E00021200000F0C1F800F0FA
:103F400029F90020287001200AE000F023F98720D9
:103F50002870002004E000F01DF98D20287000205A
:103F600032BD10B5B348006800F020FF0400200007
:103F7000C0B210BDB0480068002801D1002014E094
:103F8000AD4800680100C868AB4A10600020C860F6
:103F900000200861A9480088401CA84A1080A84851
:103FA0000088401EA64A108008007047002180F853
:103FB0002910002180F828100021C16100214161F1
:103FC00000214160002181603F2180F82010002104
:103FD00080F821100021016197490968C160964964
:103FE000086096490988491E944A118094490988B5
:103FF000491C934A1180704770B558219148FDF7CC
:10400000A5FC40219048FDF7A1FC8E4805008F4893
:10401000060000200400A4B2002C0FD164202870F8
:10402000002085F82900EE603F2085F82000002060
:1040300085F821002C352C36641CECE764202870B0
:10404000002085F829000020E8603F2085F8200046
:10405000002085F82100002075490860002077497C
:10406000088002207649088076487349086001205C
:1040700000F062FD76490860002000F05DFD6D49AA
:10408000086000F001F870BD00B587B0032004900F
:10409000002003904FF4807002906E4801904FF61C
:1040A000FD7000901D236C4A00210FF2F900FDF70E
:1040B0000DFE05AA69491D20FDF77AFE07B000BD77
:1040C00070B4032580F82950C9B2012905D1C5690A
:1040D000574E3668751945610DE08569002D05D18B
:1040E000C569534E36687519456104E08569504EBF
:1040F000366875194561057D15F007052C00524D90
:10410000A4B205EBC4052B001D68002D05D1186075
:104110000025C56001259D8007E01D682A00186004
:10412000C26010619D886D1C9D800025056170BC7A
:10413000704730B4057D15F007052C00424DA4B240
:1041400005EBC4052B001D68854207D1C568290011
:10415000196000290AD000250D6107E005692900D2
:10416000C5682A00CA60002A00D01161012580F8C4
:1041700029500025C560002505619D886D1E9D8024
:1041800030BC704780B56A4600213148006800F0B5
:104190008BFD01BD80B52E48006800F007FE01BD13
:1041A000000000002DE9F84304006A460021214880
:1041B000006800F079FDFFF7E5FF1D480068401C2E
:1041C0001B4908601A48007810F0070081461E4815
:1041D0001FFA89F900EBC9008046D8F800000500F5
:1041E000002D1FD0E8680600114800686969884200
:1041F00016D1686807003800002802D0A968280096
:10420000B8472800FFF795FF95F82800022804D149
:1042100001212800FFF754FF02E0022085F8290061
:104220003500DDE7FFF7B6FFBFE70000142E0020E2
:10423000F42D0020FC2D0020002E00200C2E00204C
:104240000A2E0020202C0020782C00204C2C00204E
:10425000F82D0020502000204C240020F476000887
:104260002D4908002D4908002D4908002D49080056
:104270002D4908002D4908002D4908002D49080046
:104280002D4908002D4908002D4908002D49080036
:104290002D4908002D4908002D4908002D49080026
:1042A0002D4908002D4908002D4908002D49080016
:1042B0002D4908002D4908002D4908002D49080006
:1042C0002D4908002D4908002D4908002D490800F6
:1042D0002D4908002D4908002D4908002D490800E6
:1042E0002D4908002D4908002D4908002D490800D6
:1042F0002D4908002D4908002D4908002D490800C6
:104300002D4908002D4908002D4908002D490800B5
:104310002D490800704700BF0A390008FC760008E4
:10432000823900086A3C0008A23C0008063D0008EB
:104330009A460008A2490008664A00080E4E000886
:10434000424E0008924E0008EA5000083A54000815
:10435000A265000876660008D6680008EE680008C6
:10436000166C0008466C0008D66D00081A6F00082D
:104370004E7100084E7500085A7500080477000851
:1043800006770008087700080A7700080C7700080D
:104390000E770008107700081277000814770008DD
:1043A00016770008187700081A7700081C770008AD
:1043B0001E7700082077000822770008247700087D
:1043C00026770008287700082A770008EFF3108086
:1043D00072B6704780F3108870471B48FF21017048
:1043E000002080F3098819480121017018481949F3
:1043F000016062B6FEE7164816490160704714482E
:1044000014490160704772B6EFF3098028B1203873
:1044100080E8F00F10490968086000B50F48804730
:104420005DF804EB0E480F490A7802700A480E49FD
:104430000A680260106890E8F00F203080F3098865
:104440004EF0040E62B6704722ED00E0192E0020F7
:1044500004ED00E000000010DC2D00201124000815
:10446000162E0020172E0020E42D0020DFF85C100F
:10447000096811F03801DFF854201160DFF84C10A2
:1044800009680143DFF8442011607047DFF83C10F1
:10449000096831F00801DFF834201160DFF82C10D2
:1044A00009680143DFF8242011607047DFF81C1011
:1044B000096831F01001DFF814201160DFF80C10EA
:1044C00009680143DFF804201160704700200240B2
:1044D0002DE9F04786B004000D005FF0000A0026C9
:1044E00000275FF000085FF00009A146208A82469D
:1044F0004CF6FF7010EA0A0AE88850EA0A0AA4F8A3
:1045000010A0A08982464EF6F31010EA0A0AA88885
:10451000298908436989084350EA0A0AA4F80CA0CB
:10452000A08A82464FF6FF4010EA0A0AA88950EA9C
:104530000A0AA4F814A06846FEF794F814488145C6
:1045400002D10398060001E002980600192000FB42
:1045500006F029688900B0FBF1F007006420B7FB82
:10456000F0F0000182465FEA1A10642101FB10702E
:1045700080465FEA081032306421B0FBF1F010F0A1
:104580000F0050EA0A0AA4F808A006B0BDE8F087B8
:104590000038014010B40022038A1A004FF2FF03D2
:1045A0001A400B884C8823438C882343CC882343B0
:1045B0001A43028210BC7047C9B2002904D0828914
:1045C00052F40052828104E082894DF6FF731A4052
:1045D00082817047F0B400230024002500260600E5
:1045E0000F00FFB27F09FFB23B0089B211F01F0735
:1045F0003C000127A7403D00012B01D10C3604E00F
:10460000022B01D1103600E01436D2B2002A03D0BA
:1046100037682F43376002E03768AF433760F0BC3C
:104620007047CA05D20D828070478088C005C00DD2
:10463000704770B4030000240026002500200A0003
:10464000D2B25209D2B2150089B211F01F0216007F
:10465000012212FA06F6012D02D19A89164006E0CF
:10466000022D02D11A8A164001E09A8A16400A00E9
:1046700092B2120A92B21400012212FA04F41A88B9
:104680001440002E04D0002C02D00122100001E0C2
:1046900000221000C0B270BC70477800F0B4002156
:1046A0000022002300240F25C678002E3CD0DFF81E
:1046B0009C60366816F4E066D6F5E066360A31008E
:1046C000D1F104063400CD404678A640310086780A
:1046D0002E4031430901067816F00306F6B2F600C3
:1046E000B140194E0778BF1056F827603200FF26F8
:1046F000077817F00307FFB2FF00BE4033009A436C
:1047000019400A43104E0778BF1046F827200126AB
:10471000077817F01F07BE400D4F90F800C05FEA02
:104720006C1C47F82C600BE00126077817F01F0778
:10473000BE40044F90F800C05FEA6C1C47F82C6044
:10474000F0BC704780E100E000E400E00CED00E028
:1047500000E100E010B504002000DFF818128842E4
:1047600008D0DFF8141288420FD0DFF81012884208
:1047700016D020E001214FF40070FDF7FFFF00216B
:104780004FF40070FDF7FAFF15E001214FF480604F
:10479000FDF7F4FF00214FF48060FDF7EFFF0AE022
:1047A00001214FF40040FDF7E9FF00214FF40040E4
:1047B000FDF7E4FFFFE710BD30B40023002244689A
:1047C0002300DFF8BC4123400C680D7954EA05242E
:1047D0002343436084682300DFF8A8412340CC686A
:1047E0008D682C434D7954EA450423438360C46AA1
:1047F000230033F470030C7C641E2243D2B253EACC
:104800000253C36230BC7047C9B2002904D0826829
:1048100052F00102826003E0826852085200826016
:104820007047816851F008018160704701000020E5
:104830008A68120702D50122100001E00022100050
:10484000C0B27047816851F0040181607047010077
:1048500000208A68520702D50122100001E00022E0
:104860001000C0B27047C9B2002904D0826852F467
:10487000A002826003E0826832F4A0028260704786
:10488000F0B400250024C9B20A2916DBC668350039
:104890000726B1F10A075FF0030C0CFB07F7BE40D7
:1048A0003400A543DBB2B1F10A0603277E4313FAB5
:1048B00006F634002543C56011E006693500072679
:1048C000032707FB01F7BE403400A543DBB20326F4
:1048D00006FB01F613FA06F6340025430561D2B251
:1048E000072A14DA466B35001F26571E5FF0050CA9
:1048F0000CFB07F7BE403400A543C9B2561E05277E
:104900007E4311FA06F63400254345632DE0D2B20A
:104910000D2A14DA066B35001F26D71F5FF0050C31
:104920000CFB07F7BE403400A543C9B2D61F0527CC
:104930007E4311FA06F634002543056315E0C66A86
:1049400035001F26B2F10D075FF0050C0CFB07F7D1
:10495000BE403400A543C9B2B2F10D0605277E431F
:1049600011FA06F634002543C562F0BC7047C06CEE
:1049700080B270470024014000280140003C014003
:10498000FFFEF0FFFDF7F1FF020000201368C9B23F
:104990000B4202D00123180001E000231800C0B22E
:1049A00070470000C0B201490860704720000E4205
:1049B000F0B5244E83B0304601F0DDFD0446224DB3
:1049C000284601F0D8FD006808B901F0D5FD284659
:1049D00001F0D1FD0546301D01F0CDFD06462868E9
:1049E0002168814228D0007810B901F0DBFD2860F1
:1049F0006A462868022101F0DAFD074600230A22F0
:104A000001A901F0F5FD30600199009AC91B91429E
:104A100005D100F2135040F62721884201D300202F
:104A200030606421306890FBF1F101EB8102C0EB52
:104A3000C2003060286820603068A0EB0011880058
:104A400003B0F0BD040000200C00002010B50446A7
:104A5000FFF7AEFF2168BDE8104041184FF0FF326C
:104A6000002001F026BE00002DE9F04104460C2193
:104A7000206990FBF1F202EB4201B0EB810144BFEF
:104A80000C31521E002A47D56069C2F1004398429A
:104A90004ADB60691518284601F0EEFD40F26D18FA
:104AA00008FB0500A168E56862682368DFF880C03C
:104AB000DFF87CE018274FF4B46691FBF7F728186D
:104AC00092FBF6F6381893FBFCFC30186044194D45
:104AD000281807EB4705A1EBC5014FF46165694351
:104AE0000EFB00104FF4B46101FB1621C1EB011263
:104AF00000EB820018180EFB1C05226A294620468E
:104B000001F0D7FD206A0128A8BFA5F56165FFF770
:104B10004FFF281ABDE8F081012ABADB6FF0004090
:104B20006369801A9842B4DA4FF0FF30BDE8F08133
:104B300080510100209CFFFF70B5040000269748BB
:104B40000078002801D0002020E0FFF73FFC06009D
:104B500093480068050092480068002804D09048F7
:104B6000006840688E4908603000FFF733FC002D74
:104B70000BD0032028702C81002068603F20E87350
:104B8000002028742800FCF7EEFD280070BD2DE9F8
:104B9000F84381460C0015005FF00008002D01D19C
:104BA00048467FE0B9F1000F03D104202870484641
:104BB00078E099F80000032803D0012028704846C7
:104BC00070E076480078002803D00F20287048460F
:104BD00068E0FFF7FBFB804699F80A00002802D046
:104BE0000120060001E000200600E4B2002C02D003
:104BF000012C25D04FE0F6B2002E1AD13F2089F8C3
:104C00000F00002089F81000002089F80000644897
:104C10000068C9F804000020A9F808006048C0F83E
:104C200000904046FFF7D6FB0020287000200700C8
:104C300005E04046FFF7CEFB492028704F4630E0A4
:104C400099F80A00002806D00023012200214846D6
:104C5000FCF7A1FCF4E73F2089F80F00002089F859
:104C60001000002089F800004D480068C9F80400D1
:104C70000020A9F808004A48C0F800904046FFF715
:104C8000A9FBF6B2012E01D1FCF769FE00202870C5
:104C90000020070005E04046FFF79CFB0720287036
:104CA0004F463800BDE8F283F8B504000D00160049
:104CB0000027002E6FD0002C02D1042030706AE053
:104CC0002078032802D00120307064E03348007857
:104CD000002802D0022030705DE0324800780028C1
:104CE00002D00D20307056E0FFF770FB07002089DE
:104CF000002808D02089401E20813800FFF76AFB79
:104D00000020307047E02848006890F82A0050F0F2
:104D100001002549096881F82A0000202249096814
:104D200081F82B002048006805852000FCF790FCE6
:104D30003800FFF74FFBFCF712FEFFF747FB0700B9
:104D40001948006890F82B00002802D0022803D0F0
:104D500005E00020307009E00E20307006E02100F0
:104D600011480068FCF7BBFC0A20307000200E4997
:104D7000096881F82A0000200B49096881F82B0096
:104D8000002009490968C8610020074909680862CC
:104D90003800FFF71FFBF1BD00000000142E0020BB
:104DA000C82D0020152E0020DC2D002038B5040071
:104DB0000025002C01D1042028E02078032801D010
:104DC000012023E0FFF702FB0500A07A00280CD0A9
:104DD0000023012200212000FCF7DDFB2800FFF763
:104DE000F9FAFCF7BCFD002010E020894FF6FF71B6
:104DF000884207D02089401C20812800FFF7EAFA6A
:104E0000002003E02800FFF7E5FA322032BD000061
:104E1000002840F10980F446404200F005F850F0C7
:104E200000406047002800BF0AD0B0FA80F18840F7
:104E3000D1F19D01C905020672F1004241EB10203B
:104E4000704700005FF0FF0C1CEAD05114BF6145B1
:104E500006E0C110400721F0E04101F160517047C8
:104E600079B900F0004100020AD0B0FA80FC00FAE3
:104E70000CF001F16051A1EB0C5101EBD021400588
:104E8000704741020CBF40F4E0016FF000010020C8
:104E9000704705002DE9F04140F2FF7581EA030CEF
:104EA0000CF0004C15EA11541DBF15EA1357AC4223
:104EB000AF42E9E0BC41C1F31301C3F31303801A0D
:104EC000994143F4801304D2641E40004941801884
:104ED0005941C90241EA5051B1FBF3F603FB1611E7
:104EE000A2FB0675D7EBC020A94102D2761E80181E
:104EF0005941C90241EA5051B1FBF3FE03FB1E11B7
:104F0000A2FB0E75D7EBC020A94103D2AEF1010E72
:104F100080185941890241EA9051760546EA8E2E61
:104F2000B1FBF3F603FB1611A2FB0675D7EB80204D
:104F3000A94102D2761E80185941C90241EA505156
:104F40004EEA060EB1FBF3F603FB1611A2FB067543
:104F5000D7EBC020A94102D2761E80185941C90260
:104F600041EA5051B1FBF3F703FB1711A2FB0735E0
:104F7000D3EBC020A94167F100070CBF004247F006
:104F8000010766F3D5274FEA1E31B80814F580648F
:104F900014DDBD0775F1004250EB0E5051EB04518A
:104FA00011F5801F5CBF41EA0C01BDE8F0814CF0B7
:104FB0007F6141F0E0410020BDE8F081BD076D0850
:104FC00040EA0E5041F48011D4F10104B4F12006FE
:104FD0000ADAC4F120060200E04001FA06F3E140DB
:104FE0001843B24015430EE0342C14DCC6F1200403
:104FF00045EA40056D0820FA06F2154321FA06F04D
:10500000A1400D43002175F1004250F1000051EB29
:105010000C01BDE8F08100205FEA0C01BDE8F081E1
:10502000CFB992185B41B3FA83F704BFB2FA82F6A4
:10503000BF190B3FB7F120062FBF02FA06F3BB40A2
:10504000C7F1200622FA06F638BF3343BA401CB136
:10505000E419641E2FE77F4231F00041B1FA81F478
:1050600004BFB0FA80F6A4190B3CB4F120062FBFA0
:1050700000FA06F1A140C4F1200620FA06F638BF76
:105080003143A0403C1B16E7AC421ABF05EA135758
:10509000AF4214E050EA41061CBF52EA4306BFE7A4
:1050A00050EA4107304661461CBF41EA0551BDE860
:1050B000F08152EA430C08BFC143BDE8F0810020F3
:1050C0004FF4001616EB410F98BF16EB430F08BFC5
:1050D00016EB410F24BFC14305E016EB430F0CBF95
:1050E00061464CEA0551BDE8F0810800F446400DE8
:1050F00040EAC120490006D200F014F8004248BF3F
:105100006FF00040604700F00DF84FF0004188421A
:105110008CBF084640426047400D40EAC12049002C
:1051200080F00D8040F00040490DA1F58061491CE0
:1051300005D4D1F11F0154BFC840C01770474FF0CC
:105140000000704710B5FF2313EAD0541DBF13EAC7
:10515000D1529C429A4239E0A41ADA0780EA01034C
:10516000134042EA012142EA0020421A3CBF641E79
:1051700001EB4202090AB2FBF1FE01FB1E22120200
:10518000B2FBF1F001FB10226EF30F201202B2FB12
:10519000F1FE4EEA00207F3406DDFE2C24DA53EACD
:1051A000500050EBC45010BDD4F1020401FB1E228C
:1051B00040F08071192C1DDC21FA04F0C4F12004A8
:1051C000A140114371F10042584110BD9C421ABFE9
:1051D00003EAD1529A420FE080EA010E0EF000433A
:1051E000400004D0490016D143F0FF4010BD4900F3
:1051F00008BFD343180010BD9C4205D1D21AF7D086
:1052000001F00041484010BD4A0212BF0846484024
:1052100000F0004010BD4AB90902B1FA81F2914094
:1052200044B1A418C00140F000409EE7C90141F01C
:10523000004152420002B0FA80F4A040141B94E7EF
:10524000FF2212EAD05C1DBF12EAD153944593426B
:105250002BE09C44D30780EA01021A4043EA002075
:1052600043EA0121A1FB0030410038BF40007CF13E
:105270007F010BDBFE294ADA5B0842EAC15153EA9F
:10528000006373F1004C51EB10207047D1F1080C12
:10529000DCF120012FDB5B0810FA01F10B4373F105
:1052A000004120FA0CF05041704794451CBF02EABF
:1052B000D153934280EA010202F000421DD0400027
:1052C00019D0490017D05BB9634514D00902B1FA6F
:1052D00081F39940BCEB030CC00140F00040C1E7F2
:1052E0000002B0FA80FC10FA0CF0B3EB0C0CC90110
:1052F00041F00041B6E71000704740000AD0490075
:1053000008D010F1807F94BF11F1807F02E042F05D
:10531000FF407047D043704790EA010F44BF81F0CF
:10532000004101F06DBA00BF421A3CBF801A8918D3
:105330004FF0004CC0F3C752FF2A24D0C1F3C7532B
:1053400013B3D21AD2F1190327DD4CEA01214CFA2A
:1053500003F321EA0303D140C20D4CEA00204018B8
:1053600034BF20EA0C004CEA5000D20553EA006337
:1053700073EB0C0C52EB1020420012F1807F38BF0F
:105380007047C00DC0057047490212BF9A4200EB3A
:105390005120F8E7D2F11703D9D570474100090E23
:1053A0007F3915D4D1F11F0114D4400007D2C001B8
:1053B00040F00040C84048BF6FF000407047C00157
:1053C00040F00040C8404CBF4FF0004040427047A2
:1053D0000020704700424FF0004058BFC043704764
:1053E00010B401E0491C521E6AB10B7804789C424B
:1053F00005D010BC2CBF01204FF0FF30704710F8D3
:10540000013B002BEED110BC0020704770B50C465C
:105410002578290006D170BD11F8013F1678B342F6
:1054200006D0401C294601F057FA28B10146224611
:1054300012F8013F002BEFD170BD1F000346084654
:10544000C2680169521C491E00290161C26003D46F
:1054500000680122002118474FF0FF3070470346D3
:1054600008461146C268521E11F1010FC26002D0F7
:1054700000680022184770472DE9F04788B00446BD
:1054800000914FF0FF35186801902E4600200390E0
:1054900002920FF2B0470FF2A4486FF0004902E009
:1054A0000298401C0290DDF808A09AF80000A0F1D4
:1054B0000903052B07D3202805D0E0B9002EB8BF7B
:1054C00000263046CCE00398401C0390012200984F
:1054D0000021A047A0F109010529F4D32028F2D02A
:1054E0000399491E10F1010F0391D9D0014600988C
:1054F0000022A047D4E7252805D10AF10100029037
:10550000002005901BE00398401C039001220098A6
:105510000021A0479AF800108842C1D0024669468F
:105520002046FFF79CFFC9E70599494505D001EBE7
:10553000810302EB430130390591401C029002982F
:105540000278A2F130010A29EED30695017840468F
:1055500001F0C2F920B10298401C0290401E007870
:105560008DF81C009DF81C00682801BF02990A787C
:10557000682A622006D06C2802BF029908786C283D
:1055800004D171208DF81C00481C0290029801780B
:10559000384601F0A1F9B0B90398401C03900122EC
:1055A00000980021A047A0F109010529F4D3202883
:1055B000F2D00399491E10F1010F039103D0014667
:1055C00000980022A04700208DF81D000298007866
:1055D000252812D0582832D0632835D0642818BF27
:1055E00069282CD06F2818BF702828D073281BD0AA
:1055F000752818BF782822D012E00398401C039029
:10560000012200980021A04725281FD00399491E98
:1056100010F1010F039105D0014600980022A04728
:10562000002008E0284606E001226946204600F0F6
:105630001AF801280ADA002E7FF543AF10E0694618
:10564000204600F06BF8F4E70022EEE7002E9DF80C
:105650001D0048BF002600283FF422AF761C1FE73C
:1056600008B0BDE8F0872DE9F8430D46804668692B
:1056700000270128164604DA002E14BF6FF0004000
:10568000012028616868686050F8044B686007E092
:1056900004F8019B012068770227A869401EA861D1
:1056A000E9682869491C401E00282861E9601FD468
:1056B000286801220021C047814619F1010F0CD052
:1056C000012E06DBA9F10900052806D3B9F1200F48
:1056D00003D0A8690028DBD101274A462946404665
:1056E000FFF7BDFE0EB1022F11D0022F03D112E041
:1056F0004FF0FF39F1E7F80702D419F1010F03D198
:105700004FF0FF30BDE8F2830020BDE8F283A869C6
:1057100010B1002020700120BDE8F2832DE9F04394
:105720000C4689B0804660690128B8BF6FF0004020
:105730002061E9464046FFF781FE07462B2F18BF40
:105740002D2F13D18DF800700DF10109E16820694A
:10575000491C401E00282061E16005D42068012218
:105760000021C047074601E04FF0FF37A0680078EE
:105770000025642814BF75280A260DD0692808BFA3
:10578000002609D06F2808BF082605D070281ABF48
:1057900040F0200078281026302F30D1E1682069B1
:1057A0000125491C401E00282061E16005D42068C5
:1057B00001220021C047074601E04FF0FF3747F0C4
:1057C0002000C0B2782817D1002E18BF102E1FD18C
:1057D000E16820691026491C401E00282061E16014
:1057E00006D4206801220021C047074600250FE0AB
:1057F0004FF0FF3700254BE056B9082608E006BBFE
:105800000A261EE0206801220021C0470746012524
:10581000302F0BD12069411EE0682161401C002916
:10582000E060EFD54FF0FF37012500E04DB13020AB
:1058300009F8010B05E0206801220021C047074656
:10584000012517F1010F23D0F9B26129A8BF5739FB
:1058500009DA4129A8BF373905DAA1F130020A2A4D
:1058600034BF3039FF21C9B2F0B2814210D20DF1FC
:105870001F00814538BF09F8017B2069411EE0689F
:105880002161401C0029E060D5D54FF0FF3701258C
:105890003A4621464046FFF7E2FD3DB9E9450ABFD9
:1058A00017F1010F00204FF0FF3043E0002089F88E
:1058B0000000A0680078642818BF692808D1002378
:1058C00032460021684600F093FE012161770AE02C
:1058D00032460021684601F0AFF801216177A168E6
:1058E000097870291FD0217F622907D068290CD040
:1058F0006C291CBF74297A290ED014E0616861609C
:1059000051F8042B6160107013E06168616051F818
:10591000042B616010800CE06168616051F8042B19
:105920006160106005E06168616051F8042B61609E
:105930001060012009B0BDE8F0830000686C747A43
:105940004C00000063436E5B000000002DE9F04F47
:10595000A1B0824601AE002017461D467160B062BC
:105960000DF144090AE017F8011B7068D0470028C0
:10597000706000F0B382B06A401CB06238780100F9
:1059800001D1B06AACE22528EDD100203061706110
:10599000B061F0613062706201E040F0010017F820
:1059A000011F2029F9D023290DD02B2904D02D291E
:1059B00006D030290AD00CE040F0020080B2EEE7B9
:1059C00040F00400FAE740F00800F7E740F010006C
:1059D000F4E72A290ED12968296051F8042B29609F
:1059E000002A326304D5514240F00400316380B292
:1059F0007F1C13E0002131630BE0316B6FF000433B
:105A0000994205D001EB810302EB43013039316348
:105A10007F1C3A78A2F130010A29EED339782E2979
:105A200003D04FF0FF31F1621FE017F8011F2A2960
:105A300007D1296829607F1C51F8042B2960F26284
:105A400013E00021F1620BE0F16A6FF0004399422C
:105A500005D001EB810302EB43013039F1627F1C79
:105A60003A78A2F130010A29EED3B0860FF6EC2085
:105A7000397800F031FF08B117F8010B8DF83A00C2
:105A80009DF83A00682802BF39786829622005D05D
:105A90006C2804BF38786C2803D171208DF83A0047
:105AA0007F1C11A8F06017F8014BB4F1250024D039
:105AB0002038022840F2C380133800F0E7800B380A
:105AC00000F05481401E00F02B81401E022840F25D
:105AD000B680001F00F02481401F00F08180401E2E
